{
  "contractName": "PanelVoting",
  "abi": [
    {
      "constant": true,
      "inputs": [
        {
          "name": "",
          "type": "address"
        }
      ],
      "name": "panelistGrade",
      "outputs": [
        {
          "name": "",
          "type": "uint256"
        }
      ],
      "payable": false,
      "stateMutability": "view",
      "type": "function"
    },
    {
      "constant": true,
      "inputs": [
        {
          "name": "",
          "type": "bytes32"
        },
        {
          "name": "",
          "type": "uint256"
        }
      ],
      "name": "results",
      "outputs": [
        {
          "name": "",
          "type": "uint256"
        }
      ],
      "payable": false,
      "stateMutability": "view",
      "type": "function"
    },
    {
      "constant": false,
      "inputs": [
        {
          "name": "proposal",
          "type": "bytes32"
        },
        {
          "name": "grade",
          "type": "uint256"
        }
      ],
      "name": "vote",
      "outputs": [],
      "payable": false,
      "stateMutability": "nonpayable",
      "type": "function"
    },
    {
      "constant": false,
      "inputs": [
        {
          "name": "proposal",
          "type": "bytes32"
        }
      ],
      "name": "getResults",
      "outputs": [
        {
          "name": "",
          "type": "uint256[]"
        }
      ],
      "payable": false,
      "stateMutability": "nonpayable",
      "type": "function"
    }
  ],
  "bytecode": "0x608060405234801561001057600080fd5b50610385806100206000396000f300608060405260043610610062576000357c0100000000000000000000000000000000000000000000000000000000900463ffffffff16806346475c4c1461006757806371fcab0b146100ed5780638d228aa3146101445780639ef1204c14610193575b600080fd5b34801561007357600080fd5b5061009660048036038101908080356000191690602001909291905050506101ce565b6040518080602001828103825283818151815260200191508051906020019060200280838360005b838110156100d95780820151818401526020810190506100be565b505050509050019250505060405180910390f35b3480156100f957600080fd5b5061012e600480360381019080803573ffffffffffffffffffffffffffffffffffffffff169060200190929190505050610247565b6040518082815260200191505060405180910390f35b34801561015057600080fd5b5061017d60048036038101908080356000191690602001909291908035906020019092919050505061025f565b6040518082815260200191505060405180910390f35b34801561019f57600080fd5b506101cc60048036038101908080356000191690602001909291908035906020019092919050505061028f565b005b6060600060016000846000191660001916815260200190815260200160002090508080548060200260200160405190810160405280929190818152602001828054801561023a57602002820191906000526020600020905b815481526020019060010190808311610226575b5050505050915050919050565b60006020528060005260406000206000915090505481565b60016020528160005260406000208181548110151561027a57fe5b90600052602060002001600091509150505481565b806000803373ffffffffffffffffffffffffffffffffffffffff1673ffffffffffffffffffffffffffffffffffffffff168152602001908152602001600020819055506001600083600019166000191681526020019081526020016000206000803373ffffffffffffffffffffffffffffffffffffffff1673ffffffffffffffffffffffffffffffffffffffff16815260200190815260200160002054908060018154018082558091505090600182039060005260206000200160009091929091909150555050505600a165627a7a7230582020da52d8f2d94f68de27f15982bcfbd62ac4d443792d3add04a0f9f07d2220360029",
  "source": "pragma solidity ^0.4.14;\n\ncontract PanelVoting {\n\n  //Associate an address with a grade\n  mapping(address => uint) public panelistGrade;\n\n  /*Associate a proposal number with a dynamically\n    sized array which will contain panelist \n    grade mappings \n  */\n  mapping(bytes32 => uint[]) public results;  \n\n  function vote(bytes32 proposal, uint grade) public {\n    /* The vote function, when called by an address,\n       must take as input the proposal number and \n       the grade that the panelist gives the proposal.\n       The function must then associate that information\n       with the msg.sender address and store the grade \n       in the proper struct for that proposal number.\n    */\n\n    /* Populate the panelistGrade mapping with the\n       score the panelist gave the proposal:\n    */\n    panelistGrade[msg.sender] = grade;\n\n    /* Push that mapping into the results array */\n    results[proposal].push(panelistGrade[msg.sender]);\n  }\n\n  function getResults(bytes32 proposal) public returns(uint[]) {\n    uint[] votes;\n    votes = results[proposal];\n    return votes;\n  }\n}\n",
  "sourcePath": "/Users/jasercio/Truffle_Projects/Review_Voting/contracts/Voting.sol",
  "compiler": {
    "name": "solc",
    "version": "0.4.23+commit.124ca40d.Emscripten.clang"
  },
  "schemaVersion": "2.0.0",
  "updatedAt": "2018-05-04T21:55:14.870Z"
}